:020000040800F2
:10000000B0150020CD030008F9310008FB310008CD
:10001000FF3100080332000807320008000000002A
:100020000000000000000000000000000B3200088B
:100030000D320008000000000F3200082B320008CB
:10004000E7030008E7030008E7030008E7030008E8
:10005000E7030008E7030008E7030008E7030008D8
:10006000E7030008E7030008E7030008E7030008C8
:10007000E7030008E7030008E7030008E7030008B8
:10008000E7030008E7030008E7030008E7030008A8
:10009000E7030008E7030008E7030008E703000898
:1000A000E7030008E7030008E7030008E703000888
:1000B000E703000879130008CD120008E7030008E1
:1000C000E7030008E7030008E7030008E703000868
:1000D000E703000877210008E7030008E7030008AA
:1000E000E7030008E7030008E703000800F002F850
:1000F00000F06DF80AA090E8000C82448344AAF155
:100100000107DA4501D100F062F8AFF2090EBAE852
:100110000F0013F0010F18BFFB1A43F0010318473B
:10012000D4E40000F4E400000A444FF0000C10F89E
:10013000013B13F0070408BF10F8014B1D1108BF65
:1001400010F8015B641E05D010F8016B641E01F805
:10015000016BF9D113F0080F1EBF10F8014BAD1C55
:100160000C1B09D16D1E58BF01F801CBFAD505E073
:1001700014F8016B01F8016B6D1EF9D59142D6D3CD
:10018000704700000023002400250026103A28BFF5
:1001900078C1FBD8520728BF30C148BF0B607047F9
:1001A00066290DF0A486642909F02A86782909F0C9
:1001B0006386002070471FB50AF060FA0400002033
:1001C00000210CF0FBFBE0601FBD10B510BD0AF074
:1001D00071FB1146FFF7EFFF02F0E2FE0AF08FFB22
:1001E00003B4FFF7F2FF03BC01F0DAFE0CB5002008
:1001F000019000906C48006840F480306A490860C3
:1002000000BF6948006800F4003000900198401C6D
:100210000190009818B90198B0F5A06FF1D162482B
:10022000006800F4003010B10120009001E00020CF
:1002300000900098012843D15C48006840F010000D
:100240005A4908600846006820F003000860084624
:10025000006840F002000860534840685249486016
:100260000846406848600846406840F4806048603E
:100270000846406820F47C1048600846406840F416
:10028000E81048600846006840F08070086000BFD1
:100290004548006800F000700028F9D042484068E6
:1002A00020F00300404948600846406840F00200E2
:1002B000486000BF3C48406800F00C000828F9D1B5
:1002C0000CBD10B5FFF792FF10BD10B536480068A1
:1002D00040F001003449086008464068344908404D
:1002E0003149486008460068324908402E49086094
:1002F0000846006820F4802008600846406820F422
:10030000FE0048604FF41F008860FFF7DAFF4FF0EF
:1003100000602949086010BD10B5002100200022AE
:10032000214B5B6803F00C0121B1042906D0082998
:1003300028D107E0214B224C236027E01F4B204CA3
:10034000236023E0184B5B6803F47010164B5B6866
:1003500003F48032022303EB904022B9194B43434C
:10036000174C23600DE0104B5B6803F4003323B19E
:10037000144B4343124C236003E0104B4343104C97
:10038000236003E00D4B0E4C236000BF00BF064B03
:100390005B68C3F303130C4CE15C094B1B68CB4057
:1003A000074C236010BD00000010024000200240F6
:1003B0000000FFF8FFFFF6FE08ED00E000127A00F3
:1003C0000000002000093D0004000020094880478B
:1003D00009480047FEE7FEE7FEE7FEE7FEE7FEE727
:1003E000FEE7FEE7FEE7FEE704480549054A064B3F
:1003F00070470000CB020008ED000008B00F00209D
:10040000B0150020B0110020B011002010B5044636
:100410004FF0E020006920F004004FF0E021086177
:10042000E11704EB5171C1F3C7011A4A117010466C
:10043000007800EB4001C1EBC0104FF6FF7101EAFC
:10044000C0001549088015A009F0A6FC10BD70B5C4
:10045000044602F0F0FE054600BF02F0ECFE401B31
:1004600004EB4401C1EBC411B0EBC10FF5D370BD77
:1004700070B5044602F0DFFE054600BF02F0DBFE69
:10048000401BA042FAD370BD002100E0491C81420C
:10049000FCD37047140000201600002044656C61F6
:1004A000792066756E6374696F6E20696E69742059
:1004B000737563636573732E2E2E0D0A00000000A2
:1004C00010B59948806940F0040097498861084652
:1004D000806940F0080088610846806940F00100AA
:1004E0008861924800684FF2F00188438F490860A4
:1004F0000846006843F2300108438C4908608B4885
:100500000C30006840F00A0088490C3108608848C7
:1005100000684FF20F01884385490860084600686B
:1005200043F20301084382490860814808300068AB
:1005300040F009007E49083108607E48406840F07C
:1005400000707C494860C9147948001F06F0C9FF53
:100550004FF480717648001F06F0C3FF02217348F4
:1005600006F0BFFF0821714806F0BBFF10BD10B5B3
:100570007148007800F0010030B14FF400616C4820
:10058000001F06F0ACFF05E04FF400616848001F53
:1005900006F0A7FF68480078C0F3400030B14FF480
:1005A00080716348001F06F09AFF05E04FF48071E8
:1005B0005F48001F06F095FF5F480078C0F3800099
:1005C00020B10221594806F08AFF03E00221574872
:1005D00006F087FF58480078C0F3C00020B108211A
:1005E000524806F07CFF03E00821504806F079FFEE
:1005F00010BD10B50020514908705148407808B925
:10060000012008704F480068012802D104204B499E
:1006100008704B48007810B90320484908704A48D0
:10062000007E10B10220454908704848007810B19A
:100630000120424908704448407E10B106203F49DD
:10064000087043480078022802D105203B49087011
:100650003A480078072862D2DFE800F004191D321A
:1006600048595D0035484088401C80B23349488075
:10067000032801DB002048803048408818B9032057
:100680002D49087002E000202B49087047E0032044
:100690002949087043E029484088401C80B2274916
:1006A0004880032801DB002048802448408818B98E
:1006B0000F202149087002E000201F4908702EE039
:1006C0001E484088401C80B21C494880042801DB39
:1006D0000020488019484088022803DA0C20164977
:1006E000087002E003201449087018E0134840889D
:1006F000401C80B211494880042801DB002048805A
:100700000E488178012088400B49087007E00F20CF
:100710000949087003E000200749087000BF00BFC6
:10072000FFF725FF10BD000000100240000C014043
:1007300004080140000001401C00002018000020B7
:10074000C00B002010030020C4090020C6010020B7
:100750006C03002010B52021F84806F0A6FE012801
:1007600000D110BD0020FCE738B504460323022267
:100770006B21D020009400F03FFD38BD10B501235F
:1007800007226B21D02000F06CFD10BD38B5044667
:10079000022304221B21D020009400F02DFD38BD3F
:1007A00038B50446022304221C21D020009400F016
:1007B00023FD38BD10B50446234606226B21D02008
:1007C00000F04FFD10BD10B5DD4B01227521D0208A
:1007D00000F0A6FCDA48007810BD10B5FFF7F3FF73
:1007E000682801D1012010BD0020FCE710B50446A7
:1007F000234605226A21D02000F033FD10BD10B53C
:100800000446234601223721D02000F02AFD10BDE6
:1008100010B5FFF7E2FF10B1012808D103E0C9A02D
:1008200009F0BAFA03E0CDA009F0B6FA00BF00BFA4
:1008300010BD10B580226B21D02000F0D3FC3220F7
:10084000FFF705FE00221921D02000F0CBFC032287
:100850006B21D02000F0C6FC02223721D02000F00E
:10086000C1FC03221A21D02000F0BCFC0320FFF7BA
:100870008DFF10221C21D02000F0B4FC10BD1CB54F
:1008800004466B4606223B21D02000F049FC9DF82F
:1008900001009DF8001040EA012000B220809DF880
:1008A00003009DF8021040EA012000B260809DF82C
:1008B00005009DF8041040EA012000B2A0801CBD94
:1008C0001CB504466B4606224321D02000F028FCCC
:1008D0009DF801009DF8001040EA012000B2208040
:1008E0009DF803009DF8021040EA012000B26080EC
:1008F0009DF805009DF8041040EA012000B2A08098
:100900001CBD38B50546002400BF13E035F81400BF
:10091000000A8DF8000015F814008DF8010006207B
:1009200000EB4400C1B26B460222D02000F02CFC48
:10093000601CC4B2032CE9DB38BD38B50546002481
:1009400000BF13E035F81400000A8DF8000015F818
:1009500014008DF80100132000EB4400C1B26B4677
:100960000222D02000F010FC601CC4B2032CE9DB92
:1009700038BD70B504460D46164604F01F040EB18E
:1009800044F020040DB144F0400422466D21D020F3
:1009900000F028FC70BD10B5044622466E21D02020
:1009A00000F020FC10BD10B5654B01226F21D02056
:1009B00000F0B6FB6248007810BD10B5604B022213
:1009C0001321D02000F0ACFB5D4840785C490978E9
:1009D00040EA012000B210BD10B5594B022215218A
:1009E000D02000F09DFB564840785549097840EAF0
:1009F000012000B210BD10B5514B02221721D020AA
:100A000000F08EFB4E4840784D49097840EA0120BD
:100A100000B210BD2DE9F05F83460F4691461C469B
:100A2000002211464846FFF7A4FF2046FFF7B3FF18
:100A3000002649E010257019B84201DDB81BC5B287
:100A4000C4F58070A84201DA6042C5B20BEB060A19
:100A500053462A466F21D02000F096FB0A9800B337
:100A6000002211464846FFF784FF2046FFF793FF18
:100A7000414B2A466F21D02000F052FB4FF0000876
:100A80000DE01AF808003C4911F80810884202D01D
:100A90000020BDE8F09F08F1010000F0FF08A84524
:100AA000EFDB701986B26019C4B2BE420CDA1CB911
:100AB00009F1010000F0FF09002211464846FFF746
:100AC00058FF2046FFF767FFBE42B3DB0120E0E797
:100AD0002DE9FE4F05460F46002456E02046611CD6
:100AE0008CB215F800A02046611C8CB215F800B03D
:100AF0002046611C8CB22E5C002E0FDD05EB040835
:100B0000002001215B465246CDE9001031464046A7
:100B1000FFF780FF0290A01984B231E02046611CEB
:100B20008CB215F80090B9F1010F27D1322238218B
:100B3000D02000F057FB0120029021E0000C014082
:100B4000B80300204D505536303530206E6F74207C
:100B5000666F756E642E2E2E0D0A00004D505536B0
:100B600030353020636865636B207375636365732C
:100B7000732E2E2E0D0A00004A0400200020029041
:100B8000029810B90020BDE8FE8FBC42A6DB012010
:100B9000F9E72DE9FC4104460D4616461F46DDF8EF
:100BA000208000203B4632462946CDE90080204681
:100BB000FFF730FFBDE8FC8170B504460D4600220A
:100BC00029462046FFF784FF70BD10B50446224633
:100BD0003821D02000F006FB10BD10B50446224697
:100BE0001921D02000F0FEFA10BD38B504460323C9
:100BF00002221A21D020009400F0FEFA38BD38B548
:100C00000446032305221A21D020009400F0F4FAB0
:100C100038BD10B5044622467021D02000F0E2FA1B
:100C200010BD10B5044622467121D02000F0DAFA3A
:100C300010BD10B50446234600221146D02000F016
:100C400010FB10BD10B50446200A8F4908704C7087
:100C50000B4602221321D02000F096FA10BD10B5E9
:100C60000446200A884908704C700B460222152160
:100C7000D02000F089FA10BD10B50446200A824940
:100C800008704C700B4602221721D02000F07CFA2D
:100C900010BD10B5012302226A21D02000F0E1FA34
:100CA00010BD10B5784B02227221D02000F038FA26
:100CB000754840787449097840EA012010BD10B5A4
:100CC000044622461F21D02000F08CFA10BD10B53A
:100CD000044622462121D02000F084FA10BD10B530
:100CE000044622462021D02000F07CFA10BD10B529
:100CF000044622462221D02000F074FA10BD2DE9CE
:100D0000F04781460E4690461C460022114640465A
:100D1000FFF72FFE2046FFF73EFE002525E01027B7
:100D2000E819B04201DD701BC7B2C4F58070B8424B
:100D300001DA6042C7B209EB05033A466F21D020C1
:100D400000F022FAE81985B2E019C4B2B5420CDA13
:100D50001CB908F1010000F0FF08002211464046CE
:100D6000FFF707FE2046FFF716FEB542D7DBBDE8CA
:100D7000F08770B504460D4623462A467421D020DC
:100D800000F0CEF970BD10B53A21D02000F0A5F9E1
:100D900010BD10B50446234607226A21D02000F07A
:100DA00060FA10BD10B50021D02000F096F904467D
:100DB00004F0010010BD10B50021D02000F08DF925
:100DC000044604F03F04204610BD38B50446E0B2A6
:100DD00006231A4600210090D02000F00DFA38BDFD
:100DE00010B50121D02000F078F9044604F03F044A
:100DF000204610BD38B50446E0B206231A4601214C
:100E00000090D02000F0F8F938BD10B50221D020B4
:100E100000F063F9044604F03F04204610BD38B5E5
:100E20000446E0B206231A4602210090D02000F0CA
:100E3000E3F938BD70B504460D46032C00DD70BDE6
:100E400004EB44002530C1B22A46D02000F0CAF994
:100E500000BFF4E710B501231A466A21D02000F044
:100E600000FA10BD10B50446234606226A21D020A0
:100E700000F0F7F910BD10B5012303226A21D0203C
:100E800000F0EFF910BD0000B803002008B5012103
:100E9000082006F033FDC020ADF8000010208DF8CA
:100EA000030003208DF802006946FE4806F06AFA46
:100EB000FDA008F071FF08BD10B5FA48006820F0E9
:100EC0007040F84908600846006840F040500860EB
:100ED0000120FC490860FC49C1F898010420FFF793
:100EE000C7FA0020F74908600420FFF7C1FA002084
:100EF000F549C1F8980110BD10B5EA48006820F026
:100F00007040E84908600846006840F040500860BA
:100F10000020EC49091F0860EB49C1F89C0104203E
:100F2000FFF7A6FA0120E749091F0860E649C1F862
:100F30009C010420FFF79CFA10BD10B50024D9488D
:100F4000006820F07040D74908600846006840F00B
:100F5000004008600120DB490860FFF789FA0120A2
:100F6000D949C1F89801FFF783FA0AE0601CC4B2BE
:100F7000322C03DDFFF7C0FF012010BD0120FFF779
:100F800077FAD048803800680028EFD1CD49091F92
:100F9000086000BFF1E710B50020CA49091F0860CA
:100FA000C048006820F07040BE49086008460068EC
:100FB00040F0405008600020C349C1F89C01012066
:100FC000FFF756FA0120BF49091F0860FFF750FAE2
:100FD0000020BD49C1F8980110BD10B50020B949E5
:100FE000091F0860AF48006820F07040AD490860F4
:100FF0000846006840F0405008600120B249C1F83E
:101000009C01FFF735FA0120AE49091F0860FFF780
:101010002FFA0020AC49C1F8980110BD70B5044604
:10102000A048006820F070409E49086008460068AB
:1010300040F0405008600020A249091F08600025C8
:1010400016E0E0099F4908606006040E0120FFF7E2
:101050000FFA01209C49C1F89801FFF709FA002016
:101060009849091F08600120FFF702FA681CC5B201
:10107000082DE6DB70BD70B5054600248948006880
:1010800020F07040874908600846006840F0004042
:101090000860002617E000208A49091F0860012027
:1010A000FFF7E6F901208849C1F898016006040EAF
:1010B00084488038006808B1601CC4B20120FFF782
:1010C000D7F9701CC6B2082EE5DB15B1FFF763FF38
:1010D00001E0FFF782FF204670BD70B505460E4661
:1010E0000024FFF7E9FE2846FFF798FF641CFFF78E
:1010F00024FF3046FFF792FF641CFFF71EFFFFF747
:10110000DBFE691CC8B2FFF789FF641CFFF715FFFF
:101110000020FFF7B0FF0446FFF7EEFE204670BD4B
:101120002DE9F04706460F46154698460024FFF77E
:10113000C3FE3046FFF772FFFFF7FFFE3846FFF7AA
:101140006DFFFFF7FAFEFFF7B7FE711CC8B2FFF79D
:1011500065FFFFF7F2FE00BF0FE0681EA04204D05B
:101160000120FFF788FF814603E00020FFF783FF9F
:10117000814608F80490601CC4B2AC42EDDBFFF776
:10118000BBFE2046BDE8F0872DE9F04180460D46C4
:1011900016461F460024FFF78FFE4046FFF73EFF2E
:1011A000FFF7CBFE2846FFF739FFFFF7C6FE00BF6B
:1011B00006E0385DFFF732FFFFF7BFFE601CC4B2E8
:1011C000B442F6DBFFF798FE0120BDE8F08170B570
:1011D00005460E46144631462846FFF77EFF20702E
:1011E000012070BD37B504460D4602AB01222946E9
:1011F0002046FFF7C9FF3EBD2DE9F8430746884664
:1012000014461D46089E6A4641463846FFF7DFFFF2
:1012100028B3601CFF2101FA00F0C4F10801294441
:10122000491EFF220A41104300F0FF09C5F10800E2
:1012300006FA00F0C6B2C4F1070006419DF80000AE
:1012400000EA090000909DF80000304300909DF8EE
:10125000002041463846FFF7C5FFBDE8F88300206F
:10126000FBE7F8B506460F4614461D466A46394662
:101270003046FFF7ACFF2DB10120A0409DF80010D3
:10128000084305E00120A0409DF8001021EA00007D
:10129000C0B200909DF8002039463046FFF7A2FF0B
:1012A000F8BD0000000C01404949432062757320DD
:1012B000696E697420737563636573732E2E2E0DCA
:1012C0000A0000009C8121420080214210B50121CA
:1012D000DD4807F070FA00284DD0DC480088401C3B
:1012E000DA490880DA480088401CD9490880D94882
:1012F0000088401CD7490880D7480088401C80B22D
:10130000D549088000EBC00101EB00104FF47A7161
:10131000B1EB400F05DC0020CF4908800120CF4908
:101320000870CF480088401C80B2CD49088000EB8F
:1013300080004FF47A71B1EB800F05DC0020C849C2
:1013400008800120C7490870C7480088401C80B247
:10135000C549088000EB80004FF47A71B1EB400F73
:1013600005DC0020C04908800120C0490870012127
:10137000B54807F031FA10BD2DE9F04F85B00121D5
:10138000BB4807F018FA00287CD001F086F8B9496C
:101390000860C8680CF014F9CDE90201B549086885
:1013A0000BF097FD80460022B34B0BF00BFC06467A
:1013B0000F46B04948690CF003F932463B46CDE987
:1013C00000010BF0EDFD0446DDE902230BF0E8FD22
:1013D00082460BF009FBA7494860A8480068401CFA
:1013E000A649086008460068B0F5FA7F73D100206E
:1013F0000860A34808F0D0FCA24808F0CDFCA24841
:1014000008F0CAFCA14808F0C7FCA14808F0C4FCD9
:10141000A04808F0C1FCA04808F0BEFC9F4808F0B6
:10142000BBFC9F4808F0B8FC9E4808F0B5FC9E48FD
:1014300008F0B2FC924808F0AFFC9CA008F0ACFCAD
:101440009AA008F0A9FC9A49D1F8B0000CF0B8F8BD
:10145000044622460B4697A008F09EFC9449D1F81A
:10146000AC000CF0ADF8044622460B4698A008F0FC
:1014700093FC8F49D1F8A8000CF0A2F8044622464C
:101480000B4600E064E099A008F086FC9EA008F0FE
:1014900083FC4FF08040818EA5A008F07DFC4FF0CA
:1014A0008040018FA8A008F077FC4FF08040818F2A
:1014B000ABA008F071FCB0480188B0A008F06CFC4B
:1014C00091A008F069FCB34800680CF079F8044674
:1014D00022460B4600E037E0AFA008F05DFCB548BF
:1014E00000680CF06DF8044622460B46B2A008F0E6
:1014F00053FCB84800680CF063F8044622460B46DB
:10150000B5A008F049FC80A008F046FC594948689D
:101510000CF056F8044622460B46B6A008F03CFCF8
:1015200007F0BCFE049004980CF04AF804462246EA
:101530000B46B8A008F030FCBC480179BCA008F00C
:101540002BFC71A008F028FC0121494807F044F960
:1015500005B0BDE8F08F3EB505460C4601210420DC
:1015600006F0D9F9384806F02DFAA0B2ADF804001B
:10157000681E80B2ADF800000020ADF80600ADF89E
:1015800002006946304806F0F1FA01212E4807F0C2
:101590000FF9012211462C4806F05FFE01212A486E
:1015A00006F040FEA8A008F0F7FB3EBD3EB505469C
:1015B0000C460121022006F0AEF92D4806F002FA91
:1015C000A0B2ADF80400681E80B2ADF800000020A3
:1015D000ADF80600ADF802006946254806F0C6FAE7
:1015E0000121234807F0E4F801221146204806F0C3
:1015F00034FE01211E4806F015FE9AA008F0CCFB2F
:101600003EBD08B54FF4A06005F0EEFD1D208DF83D
:10161000000002208DF8010000208DF8020001205A
:101620008DF80300684605F0E4FD1E208DF80000EB
:1016300001208DF801008DF802008DF80300684646
:1016400005F0D7FD08BD0000000800402A0000207A
:10165000380000203E0000203A000020300000202A
:101660004000002033000020420000203400002011
:1016700000040040C40900200000B04044000020E5
:10168000ACE50008D4E4000864E500081CE50008A7
:101690008CE4000844E40008FCE30008B4E300081C
:1016A0006CE3000824E30008DCE200080D0A0000F7
:1016B000C00B002020596177202D2D2D3E2025358F
:1016C0002E3266206465677265650D0A00000000B1
:1016D0002050697463682D2D2D3E2025352E3266ED
:1016E000206465677265650D0A00000020526F6C0A
:1016F0006C202D2D2D3E2025352E32662064656709
:101700007265650D0A0000003D3D3D3D3D3D3D3D9E
:101710003D3D3D3D3D3D3D3D3D3D3D3D3D3D3D3DF9
:101720003D3D3D3D3D3D3D3D3D3D3D3D0D0A0000C6
:10173000204D6F746F72204D312050574D2D2D2D3F
:101740003E2025640D0A0000204D6F746F72204DFD
:10175000322050574D2D2D2D3E2025640D0A0000BE
:10176000204D6F746F72204D332050574D2D2D2D0D
:101770003E2025640D0A000040000040204D6F749B
:101780006F72204D342050574D2D2D2D3E20256455
:101790000D0A0000D000002020507265737375722E
:1017A00065202D2D2D3E2025352E32662050610DD1
:1017B0000A000000D400002020416C746974756434
:1017C00065202D2D2D3E2025352E3266204D0D0A0B
:1017D00000000000CC0000202054656D706572612F
:1017E000747572652D2D2D3E2025352E32662043D1
:1017F0000D0A0000204261747465727920566F6C86
:10180000746167652D2D2D3E2025332E3266760DB1
:101810000A00000020486F76657220546872752DAA
:101820002D2D3E2025332E32660D0A004800002063
:101830002052582041646472202D2D2D3E20307896
:1018400025780D0A0000000054696D65722034206F
:10185000696E697420737563636573732E2E2E0D24
:101860000A00000054696D6572203320696E697446
:1018700020737563636573732E2E2E0D0A000000AE
:1018800030B540F2E734A04200DB204640F2E734B6
:10189000A14200DB214640F2E734A24200DB2246AF
:1018A00040F2E734A34200DB2346002800DC00209E
:1018B000002900DC0021002A00DC0022002B00DCD3
:1018C00000234FF08045A8862987AA87384D2B80B2
:1018D00030BD10B588B000240121042006F00EF8B8
:1018E0000121084606F017F80F20ADF81C0018205B
:1018F0008DF81F0002208DF81E0007A92D4805F065
:1019000041FD4FF0804006F05DF82B4800682B4900
:10191000B0FBF1F0401E84B240F2E730ADF81400A5
:10192000ADF810400020ADF81600ADF8120004A983
:101930004FF0804006F01AF9684606F04CFC602033
:10194000ADF800000120ADF802000020ADF806005F
:10195000ADF8080069464FF0804006F044F969464A
:101960004FF0804006F081F969464FF0804006F064
:10197000C9F969464FF0804006F00FFA0821C80601
:1019800006F080FD0821C80606F085FD0821C8067E
:1019900006F08EFD0821C80606F093FD0121880798
:1019A00006F040FC06A008F0F7F908B010BD0000F2
:1019B00040000040000801400000002000366E0199
:1019C0004D6F746F7220696E6974207375636365FF
:1019D00073732E2E2E0D0A0070B505460C4610218D
:1019E0007E4805F07EFD284600F07CF9064620463C
:1019F00000F078F91021794805F071FD304670BD8E
:101A000070B504461021754805F06BFD204600F0C6
:101A100069F9002000F066F9054610216F4805F0CD
:101A20005EFD284670BD2DE9F04107460D4616467D
:101A300010216A4805F055FD384600F053F98046FC
:101A4000002404E0285D00F04DF9601CC4B2B442EB
:101A5000F8DB1021614805F042FD4046BDE8F08109
:101A60002DE9F04107460D46164610215B4805F06A
:101A700038FD384600F036F98046002405E00020A5
:101A800000F030F92855601CC4B2B442F7DB1021D5
:101A9000524805F024FD4046BDE8F08170B504468B
:101AA0000D464FF480514D4805F01BFD2A46214656
:101AB000A020FFF7B8FF4FF48051484805F00FFD14
:101AC00070BD1FB546A103C9CDE90201002405225E
:101AD00002A93020FFF7A7FF052269461020FFF773
:101AE000BFFF00BF06E01DF80400C22800D003E0DD
:101AF000601CC4B2052CF6DB00BF052C05D13AA052
:101B000008F04AF9012004B010BD3CA008F044F9E7
:101B10000020F8E710B500F083F8FFF7D2FF08F0D7
:101B20009AF810BD10B54FF480512C4805F0D9FC3F
:101B3000FF21E220FFF750FF052237492A20FFF757
:101B400072FF01212120FFF747FF01212220FFF72B
:101B500043FF28212520FFF73FFF20213120FFF7F9
:101B60003BFF0F212620FFF737FF0F212020FFF733
:101B700033FF4FF48051194805F0B1FC10BD10B58A
:101B80000720FFF73DFF044604F0400058B1202233
:101B900022496120FFF764FF08F012F82146272050
:101BA000FFF71AFF002410BD70B504460720FFF7A9
:101BB00027FF054629462720FFF70EFF05F04000C6
:101BC00050B1202221466120FFF74AFFFF21E22089
:101BD000FFF702FF002070BD0120FCE70008014074
:101BE000C2C2C2C2C20000004E524632344C303132
:101BF00020666F756E642E2E2E0D0A004E524632F0
:101C0000344C303120636865636B206661696C65B4
:101C1000642E2E2E0D0A0000480000206A040020C9
:101C200000B587B00121042005F068FE01210820DD
:101C300005F064FE0121080305F060FEE020ADF828
:101C4000040001208DF8060018208DF8070001A976
:101C5000314805F097FB4FF48050ADF804000120A7
:101C60008DF8060010208DF8070001A92A4805F01C
:101C700089FB1020ADF8040001208DF8060010202B
:101C80008DF8070001A9244805F07CFB10212248AB
:101C900005F025FC0020ADF808004FF48270ADF887
:101CA0000A000020ADF80C00ADF80E00ADF81000F1
:101CB0004FF40070ADF812001020ADF814000020B1
:101CC000ADF816000720ADF8180002A9134806F079
:101CD000B1FF0121114807F052F811A008F05CF89B
:101CE00007B000BD10B5044600BF02210B4807F045
:101CF000CAF80028F9D02146084807F071F800BF5B
:101D00000121064807F0BFF80028F9D0034807F082
:101D100069F8C0B210BD0000000801400030014069
:101D20005350492062757320696E6974207375631E
:101D3000636573732E2E2E0D0A00000010B58B48BC
:101D40008B4948608B4848608BA008F025F810BD8F
:101D50008748006940F080008549086170478448E1
:101D6000C16801F0010008B10120704701F00400D2
:101D700008B10220F9E701F0100008B10320F4E7F0
:101D80000020F2E770B5044600BFFFF7E8FF054604
:101D9000012D00D006E00120FEF76AFB601E84B230
:101DA000002CF2D100BF04B9FF25284670BD70B5E4
:101DB0000546002445F6FF70FFF7E4FF0446C4B96A
:101DC0006B48006940F002006949086108464561B6
:101DD000006940F04000086145F6FF70FFF7D2FF50
:101DE0000446012C05D06248006920F002006049D9
:101DF0000861204670BD70B505460E46FF20FFF70E
:101E0000C1FF044694B95A48006940F0010058499E
:101E100008612E80FF20FFF7B5FF0446012C05D096
:101E20005348006920F0010051490861204670BD07
:101E30000146088870472DE9F04105460E461746D1
:101E4000002407E036F814102846FFF7D4FFAD1C35
:101E5000601C84B2BC42F5DBBDE8F08130B50346BE
:101E60000C461546002207E01846FFF7E1FF24F86C
:101E700012009B1C501C82B2AA42F5DB30BD2DE93A
:101E8000F05F80468A461746B8F1006F02D3424899
:101E9000804501D3BDE8F09FFFF750FFA8F1006B2C
:101EA0004FEA9B25CBF34809C9F50074A74200DC33
:101EB0003C464DE04FF0006101EB85208A14374924
:101EC000FFF7CCFF00260BE009EB0600334931F8A1
:101ED00010004FF6FF71884200D003E0701C86B2FC
:101EE000A642F1DB00BFA6421BDA4FF0006101EB16
:101EF0008520FFF75CFF002608E03AF8160006EBA5
:101F00000901264A22F81100701C86B2A642F4DBB1
:101F10004FF0006101EB85208A142049FFF78BFF09
:101F200004E0224651464046FFF785FFA74200D114
:101F30000FE06D1C4FF000090AEB440AA044381B67
:101F400087B2B7F5007F02DD4FF4007400E03C4635
:101F5000B0E700BFFFF7FCFE00BF9BE713B50446E8
:101F6000012201A92046FFF78AFF1CBD2301674516
:101F700000200240AB89EFCD496E6E657220464C61
:101F800041534820756E6C6F636B20737563636596
:101F900073732E2E2E0D0A0000000108AA040020E3
:101FA000014600BF704700BF8F4A128802F040020E
:101FB000002AF9D0C2B28C4B1B1D1A80704708B59D
:101FC00025208DF8000000208DF801008DF802001A
:101FD00001208DF80300684605F00BF908BD2DE9D6
:101FE000F05F05460E4630010BF004FD81467F4947
:101FF00005FB01F00BF0FEFC824649460BF080FB2E
:10200000074638460BF08EFC84B220460BF0F2FCFB
:10201000834639460BF064FE82464FF083410BF055
:1020200031FD81460BF07EFC80464FF6FF7000EAE2
:10203000041404EB080084B26D48806940F0040089
:102040006B4988610846806940F48040886169482E
:10205000006820F47F60674908600846006840F423
:102060000B6008606248C06840F480406049C86006
:102070000846C06820F48040C8605B48083004808F
:10208000001D008842F20C01084357490C310880BA
:102090000846008840F4807008800846008840F0B8
:1020A00020000880FFF78BFF0020534908804880FC
:1020B0007F208880514888600020514908804880EE
:1020C0007F2088804F48886029464FA007F064FE33
:1020D000314655A007F060FEBDE8F09F0288838876
:1020E0001A40836899540288521C0280704710B5C8
:1020F000044621464048FFF7F1FF012240F22771D4
:10210000394806F048FC10BD10B5044621463A484F
:10211000FFF7E4FF012240F22771334806F03BFC51
:10212000204610BD01464A888B881A408B68985C0F
:102130004A88521C4A807047014608884A88801A9B
:102140008A881040704701884180704770B5044606
:102150000D46002606E021782748FFF7BFFF641CE4
:10216000701CC6B2AE42F6DB012240F227711E4857
:1021700006F011FC70BD10B540F227711A4806F048
:10218000EFFC90B11C48FFF7CDFF044621461648EE
:1021900006F062FC1848FFF7CFFF18BB002240F2A0
:1021A0002771114806F0F7FB1CE040F225510E485C
:1021B00006F0D6FCB0B140F225510B4806F0FAFC0F
:1021C000094806F04DFC1F490870084601780C4884
:1021D000FFF784FF1B48007801F0EBFA19480078FC
:1021E00001F080FC10BD00000038014040420F00AB
:1021F0000010024004080140AC08002044090020FF
:10220000B8080020C40800204D435520636C6F635C
:102210006B206672657175656E63793A25644D4809
:102220007A200D0A000000005541525420312062EE
:102230006175642066726571756E63793A256420F4
:102240000D0A00005400002010B5E348806940F0FA
:102250000800E1498861E148006820F00F00DF498B
:102260000860DD48806940F40070DB4988610846F9
:10227000C06840F40070C8600846C06820F4007070
:10228000C8600846406820F44040486008464068FE
:1022900040F400404860D2480068D2490840D04924
:1022A00008600846006808600846006820F48070EE
:1022B0000860081D006820F00200091D086008463B
:1022C000006820F4602008600846006840F4602040
:1022D00008600846006840F48010086008460068FE
:1022E00020F4006008600846006840F400000860C0
:1022F000BB482830006820F47000B94928310860D4
:102300000846006800200860B5480C30006820F0DE
:102310003800B3490C3108600846006840F03800C6
:102320000860081F006820F4E010091F08600846D4
:10233000006840F4E0100860081F006840F00100E9
:10234000091F08600846006840F00800086000BFE8
:10235000A348001D006800F008000028F8D1A0483C
:10236000001D006840F004009D49091D086000BF81
:102370009B48001D006800F004000028F8D19A482E
:102380009A4988609A4808619A48C8600A46116963
:1023900090680BF0B5F9954948610020C86196A096
:1023A00007F0FAFC10BD01468D483030006820F07F
:1023B0001F008B4A303210601046006808431060DE
:1023C0008748001D006840F48000854A121D106097
:1023D00000BF8348001F006800F002000028F8D00A
:1023E0007F484830006880B2704770B506460B469B
:1023F0000024002505E03046FFF7D5FF0444681CA3
:10240000C5B29D42F7DBB4FBF3F080B270BD2DE99D
:10241000FE4F0024A14608E01020FFF7C4FF20442F
:1024200084B209F1010000F0FF09B9F1140FF3DBE8
:10243000142094FBF0F084B220460BF0DBFA8246C5
:102440000BF0BEF807464FF06632734B0AF0A8FD5A
:1024500005460AF0C9FA029002980BF0B1F8054659
:102460006E4A6F4B0AF0D0FE07466E4A6E4B0AF07A
:10247000A9FB00226D4BCDE900010AF0E7FA824684
:102480000AF0B2FA02906A4902980BF0FBFA029045
:1024900002980BF02BFABDE8FE8F00B5052108204D
:1024A000FFF7A3FF00BD2DE9FF5FFFF7F6FF4F49E0
:1024B0000860C8680BF084F882468B464B49086870
:1024C0000AF007FD804600225A4B0AF07BFB0446C7
:1024D0000D46464948690BF073F8064622462B46DE
:1024E0000AF05EFD52465B46CDE900010AF058FD58
:1024F000CDE902010AF078FA3C4948604E4800787C
:10250000002832D048680BF05BF804464B4A4C4B2D
:102510000AF00AFD03D801203449087602E00020C1
:1025200032490876314948680BF04AF804464FF0C2
:102530003332444B0AF0F8FC13D82C48C069401CD5
:102540002A49C8610846C06908282ADD02203E4998
:10255000087040F2DC503D49088048808880C8807F
:102560001FE000202149C8611BE0204948680BF0AA
:1025700027F804464FF03332354B0AF0D5FC0DD224
:102580001A4948680BF01CF804460022314B0AF047
:1025900005FE03D201201549087602E00020134908
:1025A0000876124948680BF00BF804460022294BC4
:1025B0000AF0BAFC0AD201200C49487604210748E7
:1025C00004F08FFF24A007F0E7FB02E0002007499A
:1025D0004876BDE8FF9F000000100240000C01405B
:1025E00004240140FFFFF000CDCC7C40C409002052
:1025F000A470FD3FD7A35040426174746572207689
:102600006F6C7461676520414420696E6974202E87
:102610002E2E0D0A0000000066664A3FE17A14AED5
:1026200047E1F63F22FDF675E09C713F000039401E
:10263000000020410000B040A8030020703D0AD7F0
:10264000A3700940333309406C03002026010020A9
:1026500033330D400000F03F425420706F776572B5
:1026600020636C6F736520737563636573732E2EBF
:102670002E0D0A0010B57A48806940F008007849AC
:1026800088617848006820F47060764908600846E0
:10269000006840F44070086072480C30006840F0F8
:1026A000040070490C31086004216E4804F017FFE3
:1026B0006DA007F071FB10BD70B50546002404E065
:1026C000002070490855601CC4B2142CF8DB4FF48C
:1026D00000616D4804F003FF6420FDF7B8FE4FF47D
:1026E0000061694804F0FDFE002404E0285DFFF766
:1026F000FEFC601CC4B2284607F071FCA042F5D86D
:102700006420FDF7A4FE002407E06048FFF70AFDFF
:102710002146621CD4B25B4A50545C48FFF70CFD62
:102720000028F2D170BD70B50546002407E0554879
:10273000005D295D884200D006E0601CC4B22846D6
:1027400007F04DFCA042F2D800BF284607F047FC36
:10275000A04201D0002070BD0120FCE710B500248C
:1027600014E04B4850F824104A480078FFF737FC33
:102770004948FFF7A1FF4948FFF7D5FF012803D1DA
:10278000434850F8240010BD601CC4B2092CE8DB9B
:102790004FF4E130F7E710B53F48FFF78DFF3F48B2
:1027A000FFF7C1FF012800D110BD3DA007F0F4FAEA
:1027B000FFF7D4FF4849086008460068B0F5E13FDC
:1027C00040D04648FFF778FF4548FFF775FF0024E3
:1027D00035E04FF400612C4804F081FE4FF4807125
:1027E000294804F07CFE02211E4804F078FE0821EE
:1027F0001C4804F074FE4FF47A70FDF728FE4FF485
:102800000061214804F06DFE4FF480711E4804F011
:1028100068FE0221134804F064FE0821114804F008
:1028200060FE4FF47A70FDF712FE2E4850F8240037
:1028300029490968884200D103E0601CC4B2092C10
:10284000C7DB02E028A007F0A7FA4FF4E1311148F6
:102850000078FFF7C4FB2CA007F09EFA00BFA3E7A7
:1028600000100240000C0140425420706F776572E6
:1028700020696E697420737563636573732E2E2EE1
:102880000D0A0000AC0A002000080140B808002032
:102890005C000020140100202EE0000831E0000858
:1028A0004254206261756E6420636865636B2061C9
:1028B0006E6420696E697420626567696E2E70723D
:1028C000696E7466206973207573656C6573732E09
:1028D0000D0A0D0A00000000800000204FE00008F3
:1028E000A9E00008840000204254206D6F64756CDC
:1028F0006520626175642069732031313532303072
:10290000206F6B61790D0A000D0A425420626175D7
:102910006E6420636865636B20616E6420696E6914
:102920007420656E642E0D0A00000000FD49FE4A09
:10293000127841F82200FC490978491C0A2291FBCF
:10294000F2F302FB1311F84A11707047F749F84A85
:10295000127841F82200F6490978491C0A2291FBB5
:10296000F2F302FB1311F24A1170704710B50146E1
:10297000012008E0EF4A52F82030421EED4C44F8A6
:102980002230421C10B20A28F4DBEA4A516210BD20
:102990002DE9F04106460C460027002506E056F8D2
:1029A000251038460AF038FE07466D1CA542F6DBB6
:1029B00020460AF0D7FF8046414638460AF0A0FE7E
:1029C000BDE8F08170B5002430E0FEF775FAEE2026
:1029D000FEF724FBFEF7B1FAA22101EB4401C8B2D5
:1029E000FEF71CFBFEF7A9FAFEF786FA0520FDF7B5
:1029F0003FFDFEF761FAEF20FEF710FB0120FDF727
:102A000037FDFEF79AFA0120FEF735FB0546012057
:102A1000FDF72EFD0020FEF72EFB0646FEF76CFAB2
:102A200046EA0520C44921F81400641C062CCCDBBE
:102A300070BD10B5FEF740FAEE20FEF7EFFAFEF794
:102A40007CFA1E20FEF7EAFAFEF777FAFEF754FA50
:102A500010BD10B50446FEF72FFAEE20FEF7DEFAA1
:102A6000FEF76BFA2046FEF7D9FAFEF766FAFEF794
:102A700043FA10BD38B50024FEF71EFAEE20FEF72B
:102A8000CDFAFEF75AFA0020FEF7C8FAFEF755FA1B
:102A9000FEF732FAFEF710FAEF20FEF7BFFAFEF764
:102AA0004CFA0120FEF7E7FA8DF800000120FEF74E
:102AB000E2FA8DF801000020FEF7DDFA8DF8020041
:102AC000FEF71AFA9DF8000001049DF8010001EBE1
:102AD00000209DF802104418204638BD10B5FFF7BD
:102AE000A8FF6420FDF7B3FCFFF76CFF10BD10B525
:102AF000FFF7C0FF9149086010BD2DE9FF5F00217D
:102B00008F4800680AF0BEFE30D18E480088322817
:102B100013DD8C4800880AF0F3F9064632460B466E
:102B2000894903C90AF04EF8044609F05DFF84495B
:102B300008600120854908700BE0854800680AF0AC
:102B40003FFD044680480CC8204609F07FFF7E4ABE
:102B500003C27C480088401C7A49088000207D49D7
:102B600008600846006804B0BDE8F09F744801683A
:102B7000774800680AF0C4FD01900AF021FD764A0A
:102B8000764BCDE9020109F083F880460022744BB0
:102B90000AF03AFB06460022724B0AF001FA04469C
:102BA0004FF08042704B0AF0FBF9824609F01CFF9F
:102BB000684908606D480168664800680AF02CFDA5
:102BC0006449086008460068CDE72DE9F04F8FB0F2
:102BD000FFF750FF82465848008958490968A1EB21
:102BE0000020C5170446544840890021A0FB04B3C7
:102BF00001FB043100FB05114FF40002002358468D
:102C000007F0A5F84FF4FA6C024612EB0C0641F1FE
:102C10000007494841880020000440EA11400A04A6
:102C20004549C9880023A1FB04CB03FB04B301FB86
:102C300005334FEADC1141EA4361511840EBE310E0
:102C4000CDE90C103C4801884FF000004FEAC0303D
:102C500040EA51404FEAC132374989884FF00003BA
:102C6000A1FB04CB03FB04B301FB05334FEA1C219A
:102C700041EA0361511840EB2320CDE90A104FF4DB
:102C8000FA61711A77F1000076DAA4FB040105FB02
:102C9000041104FB0511C00F40EA4100C917CDE93A
:102CA00008014FF4FA62B11A67F10000A1FB01823A
:102CB00000FB012201FB002905210020A8FB0123C4
:102CC00009FB013108FB001040104FEA3201CDE949
:102CD00006104FF005014FF00002A8FB010309FBAD
:102CE000013108FB02114FEA900040EA81704FEA7F
:102CF000A101CDE90401DDE90801361A67EB0107FE
:102D0000DDE90CC2DDE90610BCEB010162EB00025B
:102D1000CDE90C12DDE90AC2DDE90401BCEB0000DB
:102D200026E029E0CC0A002000010020F40A00205F
:102D3000010100201C0B0020C00A0020B40000206C
:102D4000BC000020C8000020C0000020CA000020F5
:102D5000D000002004010020EBE2361AC05BC83F1F
:102D60000000F03F1AE95041E17A843FB8000020AA
:102D700062EB0102CDE90A024FEAEA72DDE90A01DB
:102D8000AAFB003C02FB00C00AFB0100590D41EA0E
:102D9000C0234115DDE90C209A1A61EB0001CDE951
:102DA00000214FF400420023009806F0D0FFCDE947
:102DB00002010AF0F2FD6F490860304639460AF018
:102DC000ECFD6D4903900AF05DFE8346FFF7AEFD12
:102DD0000A216A48FFF7DCFD69490860FFF78DFEAC
:102DE000684908600FB0BDE8F08F10B566480078FC
:102DF000012806D0022813D0032820D004283FD170
:102E00002CE05820FFF725FE6048006A6049086002
:102E100000F011FA5F49086002205B49087033E056
:102E200000F009FA5B490968401A59490968884263
:102E300004D9FFF75CFE03205349087024E04820C2
:102E4000FFF707FE5148006A5149086000F0F3F9A6
:102E50005049086004204C49087015E000F0EBF977
:102E60004C490968401A4A490968884207D9FFF75E
:102E7000ACFEFF204849087001204349087003E078
:102E800001204149087000BF00BF10BD10B53E4889
:102E90000078012804D0022811D0042846D128E067
:102EA0005820FFF7D6FD3948006A3949086000F01C
:102EB000C2F9384908600220334908703AE000F04E
:102EC000BAF934490968401A3149096888420FD96A
:102ED000FFF70DFE4820FFF7BCFD2C48006A2C4987
:102EE000086000F0A8F92B49086004202649087002
:102EF00020E000F0A0F927490968401A2449096830
:102F0000884212D9FFF761FEFF202349087058203C
:102F1000FFF79FFD1D48006A1D49086000F08BF90E
:102F20001C49086002201849087003E00220164975
:102F3000087000BF00BF10BD70B50024002500F070
:102F40007AF904460FE0FFF7A1FF00F074F9054697
:102F5000281B4FF47A71B0FBF1F040F6C41188429F
:102F600001D3002070BD0D4800780028EBD001206F
:102F7000F8E70000D00000200AD7233CCC0A00204C
:102F8000CC000020D4000020A8000020DC0000209D
:102F9000AC000020B0000020CB000020CA000020C0
:102FA000092000F0E5F900F033F9814800684FF49A
:102FB0007A72B0FBF2F1B1F1807F00D31DE021F015
:102FC0007F40401E4FF0E022506150170F22002832
:102FD00007DA13071D0E774B00F00F04241F1D5551
:102FE00003E013071C0E744B1C5400BF00204FF06D
:102FF000E02290610720106100BF4FF4E1316F487B
:103000000078FEF7ECFF00F04DF9FEF797FE02F0B6
:10301000B6FFFDF755FAFFF72DFBFEF75AFCFFF759
:1030200013F9FDF733FFFDF704FCFEF773FD00F025
:10303000E9F9FFF7B0FBFFF736FAFFF74FFD01F0B4
:10304000EBFB4FF47A715D480078FEF784FA0A23AF
:103050001A4619461846FEF713FC01205849087015
:10306000FFF76AFFA3E0574800880A282DDB0020FD
:103070005449088000F0DFF853494968401A534921
:10308000486000F0D8F85049486003F0A4FD0120E2
:103090004F490870FFF7FAFE4E48007850B101F032
:1030A0004BFD38B100204B49087001204A49087097
:1030B0004A49087006F03EF806F0A5FC00F0BBF89F
:1030C00041494968401A46494860FEF758FD45485D
:1030D000007820B300204349087000F0ACF83A496A
:1030E000C968401A3949C86000F0A5F83649C86077
:1030F00000F032FA04F02DF831480078022801D1AE
:1031000004F001F801F004FF06F0B9F905F07FFFC3
:1031100000F091F82C49C968401A3149C86032481A
:103120000078E0B300203049087000F084F82649A8
:103130008968401A2549886000F07DF82249886036
:103140002A480088401C80B22849088000EBC00152
:1031500001EB001041F28831B1EB800F04DC00205C
:1031600022490880FFF79FF92148007820B100F03C
:1031700037FC00201E4908701748007820B1002055
:103180001549087002F012FF03F06CFFFDF731FAE9
:1031900000F051F80C498968401A114988601548B7
:1031A000007820B100201349087000F0D3FE5AE7E0
:1031B0000000002018ED00E000E400E01401002011
:1031C0006C0300203E000020440B00206C0B00200C
:1031D00028000020C6010020B0020020C00B002003
:1031E000580B00203000002034000020080100208F
:1031F0001901002034010020704700BFFEE700BF26
:10320000FEE700BFFEE700BFFEE77047704770476C
:1032100000B585B0684604F004FB1F490098B0FB78
:10322000F1F01E49086005B000BD1D480068401C53
:103230001B490860704700BF194801684FF0E02043
:103240008269174800688142F6D11448006800EB93
:103250004003C3EBC010C2EBC000104B1B68B0FBB7
:10326000F3F001EB4103C3EBC11300EBC300704764
:1032700030B50446FFF7DFFF054600BFFFF7DBFF71
:10328000401B04EB4401C1EBC411B0EBC10FF5D3FB
:1032900030BD03480068704740420F000C01002019
:1032A0001001002010B5FEF7ACF9FEF788FE10BD46
:1032B00000209C490861C860142048610020886192
:1032C000C8610846006840F0010008600846406890
:1032D000954908409349486008460068934908406A
:1032E000904908600846006820F48020086008467D
:1032F000406820F4FE004860002088607047014666
:103300008848006840F00100864A10601046006856
:1033100010601046006840F48020106000BF8148B3
:10332000006800F002000028F9D07E484268881E3C
:1033300042EA80407B4A5060104640685060104628
:10334000006840F08070106000BF7648006800F0B0
:1033500000700028F9D07348406840F00200714ABC
:1033600050608806000E724A107010460078704750
:1033700000B502460023FFF79BFF6A48006840F44F
:1033800080306849086000BF66480068400C00282B
:10339000FAD04FF4806063494860901EC2B208467C
:1033A000406840EA824048600846406840F4803007
:1033B00048606048006840F032005E490860594843
:1033C000006840F080705749086000BF55480068A9
:1033D000400E0028FAD05348406840F0020051499E
:1033E000486005E04F484068C0F3870303F00303DB
:1033F000022BF7D1901CC006000E4D4908700846FC
:10340000007800BD10B5002455E04FF400614A4833
:1034100004F065F84FF48071474804F062F8022127
:10342000464804F05EF80821444804F05AF844483D
:10343000FDF72AF84FF400613F4804F052F84FF4CA
:1034400080713D4804F04BF802213C4804F049F8F3
:1034500008213A4804F045F83948FDF715F84FF4CB
:103460000061354804F03DF84FF48071324804F0B3
:1034700038F80221314804F032F808212F4804F0CE
:1034800030F82F48FDF700F84FF400612A4804F0A7
:1034900028F84FF48071284804F023F802212748C7
:1034A00004F01FF80821254804F019F82448FCF717
:1034B000EBFF601CC4B2042CA7DB00242BE04FF40C
:1034C00000611D4804F00BF84FF480711A4804F0B5
:1034D00006F80221194804F002F80821174803F001
:1034E000FEFF1748FCF7D0FF4FF40061124803F0CD
:1034F000F8FF4FF48071104803F0F3FF02210F48EA
:1035000003F0EFFF08210D4803F0EBFF0C48FCF738
:10351000BBFF601CC4B2032CD1DB0AA006F03CFC4C
:1035200010BD0000001002400000FFF8FFFFF6FE93
:10353000140100200020024000080140000C01405E
:10354000A0BB0D0041726D65642073756363657384
:10355000732E2E2E0D0A00002DE9F047F648007854
:10356000022806D140F2DC50F449C88088804880A7
:103570000880F248C088B0F57A7F03DA4FF47A7099
:10358000EE49C880ED48C088B0F5FA6F03DD4FF40E
:10359000FA60EA49C880E9488088B0F57A7F03DAA2
:1035A0004FF47A70E5498880E4488088B0F5FA6F76
:1035B00003DD4FF4FA60E1498880E0484088B0F5C7
:1035C0007A7F03DA4FF47A70DC494880DB48408820
:1035D000B0F5FA6F03DD4FF4FA60D8494880D74858
:1035E0000088B0F57A7F03DA4FF47A70D349088007
:1035F000D2480088B0F5FA6F03DD4FF4FA60CF4986
:103600000880CE49C988A1F57A700AF0ABF9CC4997
:103610008860CA498988A1F2DC500AF0A3F9814682
:10362000C84AC94905F00AFE044609F0C9FF074621
:10363000C64AC74B09F0B4FC054609F0D5F9C049A4
:10364000C860BE494988A1F2DC500AF08BF9814676
:10365000C04ABD4905F0F2FD044609F0B1FF074636
:103660000022BD4B09F09CFC054609F0BDF9B449A8
:103670004860B2490988A1F2DC500AF073F981462A
:10368000B44AB14905F0DAFD044609F099FF07464E
:103690000022B14B09F084FC054609F0A5F9A849C0
:1036A0000860AE480078012802D0032828D112E033
:1036B00001F053FB48B1AA48007E30B90220A74967
:1036C0000870A520A749087004E00020A5490870EB
:1036D000A249087015E00020A2490870012096490F
:1036E0000870A14908700020A049086005F0D6FDC7
:1036F0009F49086000209F4908709849087000E0C1
:1037000000BF00BFBDE8F08710B59B4800790C28CA
:1037100041D008DC05282ED0062830D0072809D053
:10372000092844D13FE00D2839D010282BD0CD28CE
:103730003DD12CE0904840798F49897940EA0120B9
:103740007E49C8808C48C0798B49097A40EA0120BB
:103750007A4988808848407A8749897A40EA0120F6
:10376000764948808448C07A8349097B40EA012031
:10377000724908801BE001207849087017E0032097
:103780007649087013E001207C4908700FE00120A1
:103790007B4908700BE0012005F02AFC07E00020BF
:1037A00005F026FC03E002206349087000BF00BF5B
:1037B00010BD10B5044670487249097844547148E8
:1037C0000078032834DA6F48007820B101280ED041
:1037D00002282CD11BE068486A490978405C2428FB
:1037E00004D168480078401C664908701FE06248B0
:1037F00064490978405C4D2805D162480078401C36
:103800006049087002E000205E4908700FE05A48E5
:103810005C490978405C3C2805D15A480078401C36
:103820005849087002E000205649087000BF38E08F
:1038300054480078032808D10020534908704E48A6
:1038400050490978405C514908704E480078401C46
:103850004C490870084601784C480078801D814228
:1038600015DB48480078401E4349085C4649097802
:10387000884208D1FFF748FF012045490870FFF74B
:1038800008FD4449086000203E49087009E03D48B1
:103890000078401E3849085C3B49097848403A495D
:1038A000087010BD10B5044621463B48FEF716FCD3
:1038B0003548007860403449087010BD10B50446A2
:1038C00036490C70084601783348FEF707FC2E484D
:1038D00000783249097848402B490870200A2F495E
:1038E0000870084601782C48FEF7F8FB2648007857
:1038F0002A490978484024490870200C2749087053
:10390000084601782448FEF7E9FB1F480078234960
:10391000097848401C490870200E20490870084664
:1039200001781D48FEF7DAFB174800781B49097833
:1039300048401549087010BD6C0300202601002086
:10394000400F002000008C420000FA43AA9F9622FC
:10395000DCA54C400000484200004440210100200A
:10396000C4090020A8030020740300207C03002069
:10397000780300202C030020800B00201901002078
:10398000C6010020230100202E0100202401002078
:10399000220100201C010020AC0800202F01002083
:1039A00010B5044645490C70084601784448FEF7B6
:1039B00095FB4448007841490978484041490870DE
:1039C000200A3E490870084601783D48FEF786FB0C
:1039D0003C4800783949097848403A49087010BD98
:1039E00070B52420FFF75EFF4D20FFF75BFF3E2000
:1039F000FFF758FF0020334908700E20FFF752FFF1
:103A00001020FFF74FFF3049D1F8A8002F490AF0E6
:103A100039F8054609F06AFF04B22046FFF7C0FFF7
:103A20002949D1F8AC0029490AF02CF8054609F0DB
:103A30005DFF04B22046FFF7B3FF2349D1F8B00081
:103A400022490AF01FF8054609F050FF04B220464B
:103A5000FFF7A6FF1E48806880F000461D493046EB
:103A60000AF010F8054609F041FF0446FFF726FF6B
:103A70001949486817490AF005F8054609F036FF64
:103A800004B22046FFF78CFF1148406980F00046E1
:103A90001249304609F0F6FF054609F027FF04B247
:103AA0002046FFF77DFF07480078FFF7FBFE012265
:103AB00040F227710A4804F06EFF70BD300100200B
:103AC000AC0800202E010020C00B00200000204187
:103AD000980C00200000C842C409002000007A446D
:103AE00000380140F749097807295AD2DFE801F088
:103AF000040D171D592C49000021F34A1170AA2802
:103B000002D10121EF4A11704BE0AF2803D102210D
:103B1000EC4A117002E00021EA4A117041E0EB49E1
:103B200008700321E74A11703BE0E949087005215C
:103B3000E44A1170E649097801F25911E34A127812
:103B40001144E14A11702CE0E2490978E04A127808
:103B500091420CDADF490A780978491CDD4B19706B
:103B6000DD498854D84909780144D74A1170D949A8
:103B70000978D74A1278914202D10621D14A1170B0
:103B80000FE0D1490978814207D10121D34A117050
:103B90000021D04A1170D24A11700021C94A117017
:103BA00000BF00BF704710B5002400BF05E0CD493D
:103BB000085DFFF797FF601CC4B2062CF7DB10BD51
:103BC000C9490A780978491CC74B1970C7498854F4
:103BD000C74909780144C64A1170704710B50446B8
:103BE000C4F30720FFF7ECFFE0B2FFF7E9FF10BDD9
:103BF00070B505460E46002404E0285DFFF7E0FF9F
:103C0000601CC4B2B442F8DB70BD10B5B648017890
:103C1000B648FEF79BFA0020B3490870B449087013
:103C200010BD70B504460020B1490870AA20FFF706
:103C3000C7FFAA20FFF7C4FF2046FFF7C1FF102CE3
:103C400006D0112C50D0122C7ED0142C4BD1E5E094
:103C50000C20FFF7B5FFA7490868A74909F012FF34
:103C6000064609F043FE05B22846FFF7B7FFA14913
:103C70004868A14909F006FF064609F037FE05B27B
:103C80002846FFF7ABFF9B4988689B4909F0FAFE7D
:103C9000064609F02BFE05B22846FFF79FFF97491D
:103CA0000868954909F0EEFE064609F01FFE05B2C8
:103CB0002846FFF793FF914948688F4909F0E2FED3
:103CC000064609F013FE05B22846FFF787FF8B4929
:103CD0008868894909F0D6FE064609F007FE05B254
:103CE0002846FFF77BFFE5E00C20FFF769FF8449DA
:103CF0000868814909F0C6FE064609F0F7FD05B2DD
:103D00002846FFF76BFF7E4948687B4909F0BAFEF9
:103D1000064609F0EBFD05B22846FFF75FFF78493C
:103D20008868754909F0AEFE064609F0DFFD05B268
:103D30002846FFF753FF734908686F4909F0A2FE50
:103D4000064609F0D3FD00E01CE005B22846FFF767
:103D500045FF6C494868684909F094FE064609F039
:103D6000C5FD05B22846FFF739FF664988686249F4
:103D700009F088FE064609F0B9FD05B22846FFF7AE
:103D80002DFF97E00C20FFF71BFF5F4908685A4999
:103D900009F078FE064609F0A9FD05B22846FFF7AE
:103DA0001DFF59494868544909F06CFE064609F060
:103DB0009DFD05B22846FFF711FF534988684E491B
:103DC00009F060FE064609F091FD05B22846FFF7AE
:103DD00005FF4E490868484909F054FE064609F0B7
:103DE00085FD05B22846FFF7F9FE48494868424973
:103DF00009F048FE064609F079FD05B22846FFF7AE
:103E0000EDFE424988683C4909F03CFE064609F04F
:103E10006DFD05B22846FFF7E1FE4BE00C20FFF7F1
:103E2000CFFE3B490868344909F02CFE064609F0EC
:103E30005DFD05B22846FFF7D1FE354948682E4999
:103E400009F020FE064609F051FD05B22846FFF7AD
:103E5000C5FE2F498868284909F014FE064609F076
:103E600045FD05B22846FFF7B9FE2A4908682249F0
:103E700009F008FE064609F039FD05B22846FFF7AD
:103E8000ADFE244948681C4909F0FCFD064609F0CE
:103E90002DFD05B22846FFF7A1FE1E498868164988
:103EA00009F0F0FD064609F021FD05B22846FFF7AE
:103EB00095FE00BF00BF0E480078FFF781FEFFF7B8
:103EC000A4FE70BDC3010020C1010020BF0100207D
:103ED000C0010020C2010020A00B002034010020FE
:103EE00022010020B7010020BD0100207701002041
:103EF000BE010020CC0D00200000C8429C0D002017
:103F00002C0E0020FC0D00208C0E00205C0E0020EA
:103F1000EC0E0020BC0E002010B504460020FE4927
:103F20000870FE490870AA20FFF74AFEAA20FFF792
:103F300047FE2046FFF744FE0C20FFF741FE0C2110
:103F4000F748FFF755FEF4480078FFF739FEFFF712
:103F50005CFE10BD10B5F348007812287ED006DC58
:103F6000022809D0102818D0112815D178E013287C
:103F700075D01428F9D136E1E948007801280BD131
:103F80001020FFF74EFE1120FFF74BFE1220FFF727
:103F900048FE1420FFF745FE86E1E1494978E04AF2
:103FA000127841EA022108B209F0DCFC0446DE493D
:103FB00009F068FDDD490860D949C978D84A927886
:103FC00041EA022108B209F0CDFC0446D64909F0C5
:103FD00059FDD6494860D2494979D14A127941EA16
:103FE000022108B209F0BEFC0446CF4909F04AFD9F
:103FF000CE498860CA49C979C94A927941EA022101
:1040000008B209F0AFFC0446C74909F03BFDC849B6
:104010000860C349497AC24A127A41EA022108B2C9
:1040200009F0A0FC0446C04909F02CFDC0494860D5
:10403000BB49C97ABA4A927A41EA022108B209F028
:1040400091FC0446B84909F01DFDB949886010206B
:10405000FFF762FF0120B749087025E161E0C1E088
:10406000AF494978AE4A127841EA022108B209F014
:1040700079FC0446AC4909F005FDAF490860A84940
:10408000C978A74A927841EA022108B209F06AFC8D
:104090000446A54909F0F6FCA7494860A0494979BA
:1040A0009F4A127941EA022108B209F05BFC0446FA
:1040B0009D4909F0E7FCA04988609949C979984A67
:1040C000927941EA022108B209F04CFC0446964973
:1040D00009F0D8FC994908609149497A904A127AC6
:1040E00041EA022108B209F03DFC04468E4909F07C
:1040F000C9FC924948608A49C97A894A927A41EA58
:10410000022108B209F02EFC0446874909F0BAFCE6
:104110008A4988601120FFF7FFFE01208549087059
:10412000C2E07F4949787E4A127841EA022108B20A
:1041300009F018FC04467C4909F0A4FC8049086099
:104140007749C978764A927841EA022108B209F0A3
:1041500009FC0446744909F095FC794948607049A6
:1041600049796F4A127941EA022108B209F0FAFB53
:1041700004466D4909F086FC714988606849C9792F
:10418000674A927941EA022108B209F0EBFB044642
:10419000654909F077FC6B4908606149497A604AD2
:1041A000127A41EA022108B209F0DCFB04465E49BA
:1041B00009F068FC634948605949C97A584A927ABB
:1041C00041EA022108B209F0CDFB0446564909F044
:1041D00059FC5C4988601220FFF79EFE012055497A
:1041E000087061E060E04E4949784D4A127841EA32
:1041F000022108B209F0B6FB04464B4909F042FC23
:10420000514908604649C978454A927841EA0221F5
:1042100008B209F0A7FB0446434909F033FC4A49B8
:1042200048603F4949793E4A127941EA022108B281
:1042300009F098FB04463C4909F024FC4249886097
:104240003749C979364A927941EA022108B209F020
:1042500089FB0446344909F015FC3C4908603049A3
:10426000497A2F4A127A41EA022108B209F07AFB10
:1042700004462D4909F006FC344948602849C97AAA
:10428000274A927A41EA022108B209F06BFB044600
:10429000254909F0F7FB2D4988601420FFF73CFE03
:1042A00001202449087000BF00BF10BD1CB50246A4
:1042B000002004E0135C0DF80030431CD8B28842A3
:1042C000F8DB002006E01DF800404B1E1B1AD454FA
:1042D000431CD8B28842F6DB1CBD10B51C49D1F88E
:1042E000A8001C4909F0CEFB044609F0FFFA00B211
:1042F000194988801649D1F8AC00164909F0C2FB6B
:10430000044609F0F3FA00B21349C8801049D1F805
:10431000B000104922E00000BE010020BD010020D5
:10432000A00B0020BF0100200AD7233CCC0D0020A9
:104330009C0D0020B00200202C0E0020FC0D00205F
:104340008C0E00205C0E0020EC0E0020BC0E002025
:10435000C00B00200000C8423801002009F092FB89
:10436000044609F0C3FA00B2F7490881F7498868A2
:10437000F74909F087FB044609F0B8FAF249C8602A
:10438000F349F448006809F07DFB044609F0AEFAF1
:1043900000B2ED490882F048006809F0A7FAEA493E
:1043A0004861EA494869EA4909F06CFB044609F0AA
:1043B0009DFA00B2E44908830221E348001DFFF79B
:1043C00075FF0221E048801DFFF770FF0221DE48E3
:1043D0000830FFF76BFF0421DB480C30FFF766FF66
:1043E0000221D9481030FFF761FF0421D64814306C
:1043F000FFF75CFF0221D4481830FFF757FF10BDCC
:104400002DE9F05F0020D5490870AA20FFF7D8FBFE
:10441000AA20FFF7D5FB0220FFF7D2FB1E20FFF7F3
:10442000CFFBCF49086DCF4909F02CFB054609F0B9
:104430005DFA04B22046FFF7D1FBC949486DC9496E
:1044400009F020FB054609F051FA04B22046FFF7B7
:10445000C5FBC349886DC34909F014FB054609F043
:1044600045FA04B22046FFF7B9FBBD49886EBE4944
:1044700009F008FB834609F0A3F80646BB4ABC4B8B
:1044800008F0A0FB80460022BA4B08F089FD0446E4
:1044900008F0F0FC0FFA80FA5046FFF79FFBB04996
:1044A000C86EB14909F0EEFA834609F089F88046F2
:1044B000AE4AAF4B08F086FB06460022AD4B08F033
:1044C0006FFD044608F0D6FC0FFA80FA5046FFF75D
:1044D00085FBA349086FA44909F0D4FA834609F083
:1044E0006FF88046A14AA24B08F06CFB06460022FA
:1044F000A04B08F055FD044608F0BCFC0FFA80FA0A
:104500005046FFF76BFB0020FFF768FB0020FFF72A
:1045100065FB0020FFF762FB91494869914909F06A
:10452000B1FA054609F0E2F904B22046FFF756FB5E
:104530008B4988698B4909F0A5FA054609F0D6F937
:1045400004B22046FFF74AFB8549C869854909F04E
:1045500099FA054609F0CAF904B22046FFF73EFB76
:104560007F49086A804909F08DFA834609F028F8E6
:1045700006467E4A7E4B08F025FB804600227D4B96
:1045800008F00EFD044608F075FC0FFA80FA50465C
:10459000FFF724FB7249486A734909F073FA8346AE
:1045A00009F00EF88046714A714B08F00BFB064685
:1045B0000022704B08F0F4FC044608F05BFC0FFA94
:1045C00080FA5046FFF70AFB6549886A664909F098
:1045D00059FA834608F0F4FF8046644A644B08F0B9
:1045E000F1FA06460022634B08F0DAFC044608F0B4
:1045F00041FC0FFA80FA5046FFF7F0FA574800786E
:10460000FFF7DEFAFFF701FBBDE8F09F70B5082069
:10461000594988700C20C870002008710021564844
:1046200041718171C1715548406880F00046484928
:10463000304609F027FA054609F058F9010A4E48B4
:1046400001724E48406880F000464149304609F00A
:1046500019FA054609F04AF9C1B247484172414981
:104660004748006809F00EFA054609F03FF9010ACB
:10467000414881723B494248006809F003FA054607
:1046800009F034F9C1B23C48C1723549486E354928
:1046900009F0F8F9054609F029F9010A36480173CD
:1046A0002F49486E2F4909F0EDF9054609F01EF92A
:1046B000C1B23148417300218173C17300202E497A
:1046C00081F8220000240AE02B4890F822002A49B1
:1046D000095D0844284981F82200601CC4B2042CFA
:1046E000F2DB00240AE0244890F82210001D005D4F
:1046F0000844214981F82200601CC4B21E48C078D9
:10470000A042F0DC1C48C078001DC1B21A48FDF779
:104710001DFD012118482230FDF718FD70BD10B5B0
:10472000002418480078401C164908700846007894
:10473000022801DD0020087012480078002856D1B8
:10474000FFF7CBFD002425E038010020980C002065
:104750000000C842CC000020D0000020BE01002094
:10476000C00B002000007A44000034434AD8124DA8
:10477000FB2109400000594054010020400F002057
:10478000D4000020C40100202048005D20490855C5
:10479000601CC4B20A2CF7DB0A2406E01B48801C0C
:1047A000005D1B490855601CC4B2102CF6DB1024B8
:1047B00006E01648001D005D15490855601CC4B28E
:1047C000172CF6DB002012498875002408E01048F9
:1047D000807D0F49095D08440D498875601CC4B28D
:1047E000162CF4DB17210A48FDF7B0FC0CE0094851
:1047F0000078012802D1FFF703FE05E005480078A4
:10480000022801D1FFF702FF10BD0000380100208F
:1048100077010020C401002010B50020FE49487037
:1048200001200870FD49FE4800F094FCFB49FC485B
:1048300000F06DFDF949FA4800F046FEF749F848E6
:1048400000F04EFFF549F64801F027F8F349F44827
:1048500001F038F910BD2DE9F04F8FB004460D4638
:1048600016461F46284608F0ABFEEE4AEE4BCDE951
:10487000000108F095FB0022EC4BCDE9020108F0A5
:10488000A1F9CDE9040108F0AFF8069007F042F96C
:104890000D90284608F094FEE24AE34BCDE9000172
:1048A00008F07EFB0022E14BCDE9020108F08AF915
:1048B000CDE9040108F098F8069007F0C5FE0C90C9
:1048C000304608F07DFED74AD74BCDE9000108F00D
:1048D00067FB0022D54BCDE9020108F073F9CDE961
:1048E000040108F081F8069007F014F9804630467C
:1048F00008F066FECB4ACC4BCDE9000108F050FB36
:104900000022CA4BCDE9020108F05CF9CDE90401AF
:1049100008F06AF8069007F097FE8146384608F0DE
:104920004FFEC04AC04BCDE9000108F039FB002220
:10493000BE4BCDE9020108F045F9CDE9040108F0CC
:1049400053F8069007F0E6F88246384608F038FE3D
:10495000B44AB54BCDE9000108F022FB0022B34B6D
:10496000CDE9020108F02EF9CDE9040108F03CF888
:10497000069007F069FE834650460D9909F082F8CB
:104980000B904146504609F07DF80A9058460D9923
:1049900009F078F8099051460C9809F073F80890DE
:1049A00059460C9809F06EF807900A98206059460D
:1049B000404609F067F8606089F00040A060494611
:1049C000089809F05FF80690099880F0004005907B
:1049D000069908F021FEE0604946079809F052F870
:1049E00006900B9908F018FE206141460C9809F0DA
:1049F00049F8606149460B9809F044F80690079918
:104A000008F00AFEA0614946099809F03BF80690B3
:104A1000089880F000400590069908F0FDFDE061DF
:104A200040460D9909F02EF820620FB0BDE8F08FD6
:104A300010B57F48808B784948807D48018C764846
:104A400081807B48818C7448C1807948008A724992
:104A500008817748818A704841817548018B6E488A
:104A600081817348406C6C4948617148816C6A4827
:104A700081616F48C16C6848C1616D48806B66494F
:104A800008626B48C16B644841626948016C6248C6
:104A900081620246916B506909F0B4F9044600F056
:104AA000E5FB5D4908650A46D16B906909F0AAF9F2
:104AB000044600F0B8FC584948650A46116CD069B4
:104AC00009F0A0F9044600F0BAFD534988650A468A
:104AD000516C106A09F096F9044600F08DFE4E49BB
:104AE00088660A46916C506A09F08CF9044600F019
:104AF00060FF4949C8660A46D16C906A09F082F99C
:104B0000044601F06BF8444908674A484068C1F818
:104B1000AC0048480068C1F8A80046488068C1F861
:104B2000B0000846D0F8B030D0F8AC20D0F8A810CB
:104B30007430FFF790FE10BD2DE9F04100260024EF
:104B400000270025FEF7A5FB85B23B480088281A00
:104B500087B23A48007898B901203849087000BFF8
:104B60000CE00020364941F82400364941F8240081
:104B70003549088028494870601CC4B2032CF0DB1A
:104B80000A2F74DB30480088B0F5967F25DA0024C0
:104B900019E0214A143252F82410294A52F824000C
:104BA00008F03AFD264941F824001B4A203252F809
:104BB0002410244A52F8240008F02EFD214941F81F
:104BC0002400601CC4B2032CE3DB1F480088401C97
:104BD0001D4908801848058049E000243AE01A4839
:104BE000008808F007FF8046154951F82400414627
:104BF00008F086FD0849383141F824001248008841
:104C000008F0F8FE80460F4951F82400414608F0AC
:104C100077FD0149443119E0C00B00200000F0414C
:104C20000000C8424AD8124DFB210940008066406E
:104C3000000A0020E4090020CA010020CC01002065
:104C4000800C00208C0C0020C801002041F82400BA
:104C5000601CC4B2032CC2DB6349086C634909F0D1
:104C6000D1F8614908640020614908700126304686
:104C7000BDE8F0812DE9F84F5B48801CFBF7FFFD94
:104C800059480830FBF71CFE4FF0000A33E0564944
:104C9000891C31F91A0008F065FE05464FF066518F
:104CA00008F0F0FE0446514908F0ECFE4E4914317C
:104CB00041F82A000C3931F91A0008F053FE4D4929
:104CC000009008F0DFFE834608F07AFC06464A4A68
:104CD0004A4B08F065F904460022494B07F072FF81
:104CE000804607F081FE4049203141F82A000AF150
:104CF000010000F0FF0ABAF1030FC8DB3A4A916BDA
:104D0000506909F07FF8044600F0B0FA36490865AA
:104D10000A46D16B906909F075F8044600F083FBF0
:104D2000314948650A46116CD06909F06BF80446B0
:104D300000F085FC2C498865086A00F05DFD2A4971
:104D40008866486A00F035FE2749C866886A00F020
:104D500045FF25490867BDE8F88F2DE9F047002495
:104D6000A046002509E02048801CFBF788FD1E486E
:104D7000B0F906000444681CC5B2052DF3DB2046DB
:104D800008F038FE81461F4908F0BAFC07464FF08C
:104D9000665108F077FE0646144908F073FE124982
:104DA000C8610A46116CD06909F02CF8804640466B
:104DB00008F006FC0646144A144B08F0EFF90CD232
:104DC000404608F0FDFB0646114A124B08F0ACF8CD
:104DD00003D201200449087002E000200249087053
:104DE00001480078BDE8F087C00B00200AE81C41AC
:104DF000CC01002000007A3D4AD8124DFB21094029
:104E0000008066400000A040666666A66783234077
:104E10009A9999D99AB623402DE9F04705460C4650
:104E20002846A16808F02EFE8246294608F02AFE90
:104E300080464FF0804108F063FC074628466168D1
:104E400008F020FE8146394608F0E6FB0646216858
:104E500008F0E2FB20602846A16808F013FE064631
:104E6000616808F0D9FB6060BDE8F0872DE9FF4F6D
:104E700087B014469946DDF850A05146079808F0CF
:104E800001FE0546089908F0FDFD069054F829003A
:104E9000069908F0C1FB44F82900B9F1000F28D1A8
:104EA0005046069908F0EEFD0546616808F0B4FB2F
:104EB00060605146504608F0E5FD0190069908F003
:104EC000E1FD834608F07CFB074600228F4B07F08C
:104ED00079FECDE90401A06808F072FBCDE902017A
:104EE000DDE9042307F0B2FD054607F07DFDA06073
:104EF0000BE0B9F1010F08D15046069908F0C2FD48
:104F00000546A16808F088FBA0600BB0BDE8F08FF3
:104F10002DE9FF470020019002900390FEF78BF9E6
:104F200006467B48006848B179490968701A08F05C
:104F300061FD8046774908F0E3FB00E0002007466A
:104F4000734806607448007808B9BDE8FF87734865
:104F5000407800B9F9E77248007878B17148016883
:104F6000002008F04FFF80466F480168404608F077
:104F700049FF6E4908600020694908706C48007854
:104F8000002854D06B4A1168644A106D08F03AFF4B
:104F900062490865674A5168604A506D08F032FFFF
:104FA0005E494865634A91685C4A906D08F02AFF43
:104FB0005A498865002423E000205F4941F8240015
:104FC000002519E005EB4503544A743202EB8302D5
:104FD00052F82400514A503252F8251008F052FD80
:104FE0008046554850F82410404608F015FB5249B9
:104FF00041F82400681CC5B2032DE3DB601CC4B279
:10500000032CD9DB4C48806880F000404A49886016
:1050100088684A4908F000FB80464348816840465A
:1050200008F0F0FE46498860002041490870454874
:1050300001683E48006808F025FD81464148016846
:10504000484608F01FFD8046039908F049FE03908A
:1050500000242EE04FF00008002513E004EB440389
:105060002E4A743202EB830252F8250001AA52F84C
:10507000251008F007FD8146414608F0CDFA80462C
:10508000681CC5B2032DE9DB2F480168404608F0D3
:10509000F9FC8246394608F0F5FC8146254850F86F
:1050A0002410484608F0B8FA224941F82400601C50
:1050B000C4B2032CCEDB1F48806880F000401D493D
:1050C000886019493846FFF7A7FE1E48006800238C
:1050D000154A3946009015480068FFF7C7FE1B487F
:1050E00000681749009002230F4A88683946FFF785
:1050F000BDFE0D480068164988600B48406848614D
:1051000009488068086200BF1FE7000000000840EF
:10511000EC01002000247449CA000020C00B0020CC
:10512000CB000020D4000020BC0C0020E8010020AF
:1051300028000020D40C0020DC0100200AE81C41DB
:10514000C80C0020D0010020D8010020D40100208C
:10515000980C00202DE9FE4F82460C46002002905C
:10516000814601902146504608F0CAFA0290029802
:1051700008F026FA07463A460B46FE48FE4907F075
:1051800021FD054607F030FC834607F05DFB8146B4
:105190004946484608F076FC8046F84806F0BAFCD6
:1051A00083464FF0804108F06DFC0746494608F001
:1051B00069FC06464FF07E5108F02EFA054641463E
:1051C00008F02AFA0190EE4804600021006808F017
:1051D00025FD49D24946484608F054FC0546019948
:1051E00008F08EFAE7490860084601684FF08040F1
:1051F00008F048FCE4490860E2480068E3490860B8
:105200004946484608F03EFC07464FF07E5108F0FC
:10521000F9FD06464FF0804108F034FC054601993F
:1052200008F06EFADA4908604946484608F02AFC58
:105230000090D24806F06EFC83464FF0804108F0A3
:1052400021FC8046494608F01DFC07464FF07E5180
:1052500008F046FD0646009908F0DEF9054601997A
:1052600008F04EFACB490860BDE8FE8F2DE9F04703
:105270000446002500260021C148006808F0CEFB46
:1052800002D82046BDE8F087C2480168C2480068DD
:1052900008F0F8FB8046BE480168C048006808F086
:1052A000F1FB8146214608F01BFD0746414608F008
:1052B000A9FD0546284605F055FF18B9284605F012
:1052C00047FF00B12546B1480168B348006808F0BF
:1052D000D9FB8046AC480168B048006808F0D2FBB2
:1052E0008146A8480168284608F0CCFB824649461A
:1052F00008F092F90746414608F08EF90646A7489D
:105300000068A5490860A54805603046BAE72DE960
:10531000FE4F82460C4600200290814601902146B5
:10532000504608F0EDF90290029808F049F9074656
:105330003A460B468F48904907F044FC054607F073
:1053400053FB834607F080FA81464946484608F0F9
:1053500099FB8046894806F0DDFB83464FF080418B
:1053600008F090FB0746494608F08CFB06464FF0D4
:105370007E5108F051F90546414608F04DF901907B
:10538000874804600021006808F048FC49D249467B
:10539000484608F077FB0546019908F0B1F98149C4
:1053A0000860084601684FF0804008F06BFB7E49BA
:1053B00008607C4800687D4908604946484608F016
:1053C00061FB07464FF07E5108F01CFD06464FF08A
:1053D000804108F057FB0546019908F091F974499E
:1053E00008604946484608F04DFB0090634806F0C7
:1053F00091FB83464FF0804108F044FB80464946CC
:1054000008F040FB07464FF07E5108F069FC064665
:10541000009908F001F90546019908F071F965490C
:105420000860BDE8FE8F2DE9F04704460025002600
:1054300000215B48006808F0F1FA02D82046BDE878
:10544000F0875C4801685C48006808F01BFB8046F8
:10545000574801685948006808F014FB8146214606
:1054600008F03EFC0746414608F0CCFC05462846BD
:1054700005F078FE18B9284605F06AFE00B1254609
:105480004A4801684C48006808F0FCFA80464648E3
:1054900001684A48006808F0F5FA81464148016809
:1054A000284608F0EFFA8246494608F0B5F8074664
:1054B000414608F0B1F80646404800683E49086099
:1054C0003E4805603046BAE72DE9FE4F82460C465D
:1054D00000200290814601902146504608F010F9C4
:1054E0000290029808F06CF807463A460B462148AD
:1054F000214907F067FB054607F076FA834607F077
:10550000A3F981464946484608F0BCFA80461B4844
:1055100006F000FB83464FF0804108F0B3FA0746DF
:10552000494608F0AFFA06464FF07E5108F074F88D
:105530000546414608F070F80190214804600021BA
:10554000006808F06BFB78D24946484608F09AFAA2
:105550000546019908F0D4F81A4908600846016820
:105560004FF0804008F08EFA17490860154800682F
:1055700016492DE04AD8124DFB210940DA0F493F68
:10558000F0010020FC0100200002002004020020A5
:10559000F4010020F80100200C0200200802002085
:1055A000100200201C020020200200202402002003
:1055B00014020020180200202C02002028020020E3
:1055C000300200203C020020400200204402002063
:1055D00008604946484608F055FA07464FF07E51A4
:1055E00008F010FC06464FF0804108F04BFA0546E3
:1055F000019908F085F8FE4908604946484608F0D8
:1056000041FA0090FB4806F085FA83464FF080414E
:1056100008F038FA8046494608F034FA07464FF059
:105620007E5108F05DFB0646009907F0F5FF054640
:10563000019908F065F8F0490860BDE8FE8F2DE992
:10564000F0470446002500260021EC48006808F0D9
:10565000E5F902D82046BDE8F087E7480168E84848
:10566000006808F00FFA8046E1480168E5480068E4
:1056700008F008FA8146214608F032FB0746414609
:1056800008F0C0FB0546284605F06CFD18B9284611
:1056900005F05EFD00B12546DB480168D84800688A
:1056A00008F0F0F98046D9480168D648006808F04B
:1056B000E9F98146D6480168284608F0E3F98246B0
:1056C000494607F0A9FF0746414607F0A5FF0646F1
:1056D000CC480068CA490860CA4805603046BAE745
:1056E0002DE9FE4F82460C46002002908146019033
:1056F0002146504608F004F80290029807F060FF37
:1057000007463A460B46C348C34907F05BFA0546CD
:1057100007F06AF9834607F097F8814649464846FC
:1057200008F0B0F98046B34806F0F4F983464FF02C
:10573000804108F0A7F90746494608F0A3F9064654
:105740004FF07E5107F068FF0546414607F064FFC1
:105750000190B24804600021006808F05FFA49D265
:105760004946484608F08EF90546019907F0C8FFFA
:10577000AB490860084601684FF0804008F082F9A4
:10578000A8490860A6480068A749086049464846F5
:1057900008F078F907464FF07E5108F033FB0646D3
:1057A0004FF0804108F06EF90546019907F0A8FF17
:1057B0009E4908604946484608F064F900908D48C3
:1057C00006F0A8F983464FF0804108F05BF9804667
:1057D000494608F057F907464FF07E5108F080FA25
:1057E0000646009907F018FF0546019907F088FF63
:1057F0008F490860BDE8FE8F2DE9F047044600257B
:10580000002600218548006808F008F902D82046E3
:10581000BDE8F087864801688648006808F032F9DC
:105820008046824801688448006808F02BF9814668
:10583000214608F055FA0746414608F0E3FA0546C6
:10584000284605F08FFC18B9284605F081FC00B108
:105850002546754801687748006808F013F98046C6
:10586000704801687448006808F00CF981466C487B
:105870000168284608F006F98246494607F0CCFE42
:105880000746414607F0C8FE06466B48006869496E
:105890000860694805603046BAE72DE9FE4F824648
:1058A0000C4600200290814601902146504607F0A8
:1058B00027FF0290029807F083FE07463A460B4600
:1058C0005448554907F07EF9054607F08DF88346A0
:1058D00006F0BAFF81464946484608F0D3F88046AC
:1058E000444806F017F983464FF0804108F0CAF8A3
:1058F0000746494608F0C6F806464FF07E5107F0C5
:105900008BFE0546414607F087FE01904B48046038
:105910000021006808F082F949D24946484608F05B
:10592000B1F80546019907F0EBFE454908600846C5
:1059300001684FF0804008F0A5F8424908604048EF
:105940000068414908604946484608F09BF8074608
:105950004FF07E5108F056FA06464FF0804108F0AD
:1059600091F80546019907F0CBFE38490860494691
:10597000484608F087F800901E4806F0CBF88346AA
:105980004FF0804108F07EF88046494608F07AF8EA
:1059900007464FF07E5108F0A3F90646009907F03C
:1059A0003BFE0546019907F0ABFE29490860BDE8BA
:1059B000FE8F2DE9F04704460025002600211F48F0
:1059C000006808F02BF802D82046BDE8F087204890
:1059D00001682048006808F055F880461B480168B7
:1059E0001D48006808F04EF88146214636E0000068
:1059F00034020020DA0F493F380200203002002034
:105A00004C020020480200204402002040020020F6
:105A10003C0200204AD8124DFB21094050020020D0
:105A20005C0200206002002064020020540200207A
:105A3000580200206C020020680200207002002042
:105A40007C020020800200208402002074020020DA
:105A5000780200208C0200208802002008F040F923
:105A60000746414608F0CEF90546284605F07AFB80
:105A700018B9284605F06CFB00B12546804801683E
:105A80008048006807F0FEFF80467F4801687F4835
:105A9000006807F0F7FF81467D480168284607F057
:105AA000F1FF8246494607F0B7FD0746414607F039
:105AB000B3FD064675480068724908607348056082
:105AC000304682E72DE9FE4F82460C4600200290C8
:105AD000814601902146504607F012FE029002983E
